{
  "_format": "hh-sol-artifact-1",
  "contractName": "IbyFactory",
  "sourceName": "contracts/ibyFactory.sol",
  "abi": [
    {
      "anonymous": false,
      "inputs": [
        {
          "indexed": false,
          "internalType": "uint256",
          "name": "realtyId",
          "type": "uint256"
        },
        {
          "indexed": false,
          "internalType": "string",
          "name": "location",
          "type": "string"
        },
        {
          "indexed": false,
          "internalType": "uint256",
          "name": "value",
          "type": "uint256"
        }
      ],
      "name": "NewRealty",
      "type": "event"
    },
    {
      "inputs": [
        {
          "internalType": "string",
          "name": "_location",
          "type": "string"
        },
        {
          "internalType": "uint256",
          "name": "_value",
          "type": "uint256"
        }
      ],
      "name": "createRealty",
      "outputs": [],
      "stateMutability": "nonpayable",
      "type": "function"
    },
    {
      "inputs": [],
      "name": "realtyCounter",
      "outputs": [
        {
          "internalType": "uint256",
          "name": "",
          "type": "uint256"
        }
      ],
      "stateMutability": "view",
      "type": "function"
    },
    {
      "inputs": [
        {
          "internalType": "uint256",
          "name": "",
          "type": "uint256"
        }
      ],
      "name": "realtyInventory",
      "outputs": [
        {
          "internalType": "uint256",
          "name": "id",
          "type": "uint256"
        },
        {
          "internalType": "string",
          "name": "location",
          "type": "string"
        },
        {
          "internalType": "uint256",
          "name": "value",
          "type": "uint256"
        }
      ],
      "stateMutability": "view",
      "type": "function"
    }
  ],
  "bytecode": "0x60806040526000805534801561001457600080fd5b50610adf806100246000396000f3fe608060405234801561001057600080fd5b50600436106100415760003560e01c8063133f79991461004657806387c02bb414610078578063a7b07c6a14610096575b600080fd5b610060600480360381019061005b9190610351565b6100b2565b60405161006f93929190610426565b60405180910390f35b610080610174565b60405161008d9190610464565b60405180910390f35b6100b060048036038101906100ab91906105b4565b61017a565b005b600181815481106100c257600080fd5b90600052602060002090600302016000915090508060000154908060010180546100eb9061063f565b80601f01602080910402602001604051908101604052809291908181526020018280546101179061063f565b80156101645780601f1061013957610100808354040283529160200191610164565b820191906000526020600020905b81548152906001019060200180831161014757829003601f168201915b5050505050908060020154905083565b60005481565b600061018583610197565b90506101928184846101ca565b505050565b6000816040516020016101aa91906106ac565b6040516020818303038152906040528051906020012060001c9050919050565b6001604051806060016040528085815260200184815260200183815250908060018154018082558091505060019003906000526020600020906003020160009091909190915060008201518160000155602082015181600101908161022f919061086f565b506040820151816002015550507fe180e542e3c03d8159db9334c051118a554b98bc2380e84397bfe0d9c1b3031960016000548154811061027357610272610941565b5b90600052602060002090600302016000015460016000548154811061029b5761029a610941565b5b90600052602060002090600302016001016001600054815481106102c2576102c1610941565b5b9060005260206000209060030201600201546040516102e3939291906109f4565b60405180910390a16000808154809291906102fd90610a61565b9190505550505050565b6000604051905090565b600080fd5b600080fd5b6000819050919050565b61032e8161031b565b811461033957600080fd5b50565b60008135905061034b81610325565b92915050565b60006020828403121561036757610366610311565b5b60006103758482850161033c565b91505092915050565b6103878161031b565b82525050565b600081519050919050565b600082825260208201905092915050565b60005b838110156103c75780820151818401526020810190506103ac565b838111156103d6576000848401525b50505050565b6000601f19601f8301169050919050565b60006103f88261038d565b6104028185610398565b93506104128185602086016103a9565b61041b816103dc565b840191505092915050565b600060608201905061043b600083018661037e565b818103602083015261044d81856103ed565b905061045c604083018461037e565b949350505050565b6000602082019050610479600083018461037e565b92915050565b600080fd5b600080fd5b7f4e487b7100000000000000000000000000000000000000000000000000000000600052604160045260246000fd5b6104c1826103dc565b810181811067ffffffffffffffff821117156104e0576104df610489565b5b80604052505050565b60006104f3610307565b90506104ff82826104b8565b919050565b600067ffffffffffffffff82111561051f5761051e610489565b5b610528826103dc565b9050602081019050919050565b82818337600083830152505050565b600061055761055284610504565b6104e9565b90508281526020810184848401111561057357610572610484565b5b61057e848285610535565b509392505050565b600082601f83011261059b5761059a61047f565b5b81356105ab848260208601610544565b91505092915050565b600080604083850312156105cb576105ca610311565b5b600083013567ffffffffffffffff8111156105e9576105e8610316565b5b6105f585828601610586565b92505060206106068582860161033c565b9150509250929050565b7f4e487b7100000000000000000000000000000000000000000000000000000000600052602260045260246000fd5b6000600282049050600182168061065757607f821691505b60208210810361066a57610669610610565b5b50919050565b600081905092915050565b60006106868261038d565b6106908185610670565b93506106a08185602086016103a9565b80840191505092915050565b60006106b8828461067b565b915081905092915050565b60008190508160005260206000209050919050565b60006020601f8301049050919050565b600082821b905092915050565b6000600883026107257fffffffffffffffffffffffffffffffffffffffffffffffffffffffffffffffff826106e8565b61072f86836106e8565b95508019841693508086168417925050509392505050565b6000819050919050565b600061076c6107676107628461031b565b610747565b61031b565b9050919050565b6000819050919050565b61078683610751565b61079a61079282610773565b8484546106f5565b825550505050565b600090565b6107af6107a2565b6107ba81848461077d565b505050565b5b818110156107de576107d36000826107a7565b6001810190506107c0565b5050565b601f821115610823576107f4816106c3565b6107fd846106d8565b8101602085101561080c578190505b610820610818856106d8565b8301826107bf565b50505b505050565b600082821c905092915050565b600061084660001984600802610828565b1980831691505092915050565b600061085f8383610835565b9150826002028217905092915050565b6108788261038d565b67ffffffffffffffff81111561089157610890610489565b5b61089b825461063f565b6108a68282856107e2565b600060209050601f8311600181146108d957600084156108c7578287015190505b6108d18582610853565b865550610939565b601f1984166108e7866106c3565b60005b8281101561090f578489015182556001820191506020850194506020810190506108ea565b8683101561092c5784890151610928601f891682610835565b8355505b6001600288020188555050505b505050505050565b7f4e487b7100000000000000000000000000000000000000000000000000000000600052603260045260246000fd5b6000815461097d8161063f565b6109878186610398565b945060018216600081146109a257600181146109b8576109eb565b60ff1983168652811515602002860193506109eb565b6109c1856106c3565b60005b838110156109e3578154818901526001820191506020810190506109c4565b808801955050505b50505092915050565b6000606082019050610a09600083018661037e565b8181036020830152610a1b8185610970565b9050610a2a604083018461037e565b949350505050565b7f4e487b7100000000000000000000000000000000000000000000000000000000600052601160045260246000fd5b6000610a6c8261031b565b91507fffffffffffffffffffffffffffffffffffffffffffffffffffffffffffffffff8203610a9e57610a9d610a32565b5b60018201905091905056fea2646970667358221220991871e5992a07b9fdfe868d3688cf8c11ca90433a50dd8aae8a5514c27936a264736f6c634300080f0033",
  "linkReferences": {},
  "deployedLinkReferences": {}
}