{"contracts/ibyFactory.sol":{"IbyFactory":{"abi":[{"anonymous":false,"inputs":[{"indexed":false,"internalType":"uint256","name":"realtyId","type":"uint256"},{"indexed":false,"internalType":"string","name":"location","type":"string"},{"indexed":false,"internalType":"uint256","name":"value","type":"uint256"}],"name":"NewRealty","type":"event"},{"inputs":[{"internalType":"string","name":"_location","type":"string"},{"internalType":"uint256","name":"_value","type":"uint256"}],"name":"createRealty","outputs":[],"stateMutability":"nonpayable","type":"function"},{"inputs":[],"name":"realtyCounter","outputs":[{"internalType":"uint256","name":"","type":"uint256"}],"stateMutability":"view","type":"function"},{"inputs":[{"internalType":"uint256","name":"","type":"uint256"}],"name":"realtyInventory","outputs":[{"internalType":"uint256","name":"id","type":"uint256"},{"internalType":"string","name":"location","type":"string"},{"internalType":"uint256","name":"value","type":"uint256"}],"stateMutability":"view","type":"function"}],"evm":{"bytecode":{"linkReferences":{},"object":"60806040526000805534801561001457600080fd5b50610adf806100246000396000f3fe608060405234801561001057600080fd5b50600436106100415760003560e01c8063133f79991461004657806387c02bb414610078578063a7b07c6a14610096575b600080fd5b610060600480360381019061005b9190610351565b6100b2565b60405161006f93929190610426565b60405180910390f35b610080610174565b60405161008d9190610464565b60405180910390f35b6100b060048036038101906100ab91906105b4565b61017a565b005b600181815481106100c257600080fd5b90600052602060002090600302016000915090508060000154908060010180546100eb9061063f565b80601f01602080910402602001604051908101604052809291908181526020018280546101179061063f565b80156101645780601f1061013957610100808354040283529160200191610164565b820191906000526020600020905b81548152906001019060200180831161014757829003601f168201915b5050505050908060020154905083565b60005481565b600061018583610197565b90506101928184846101ca565b505050565b6000816040516020016101aa91906106ac565b6040516020818303038152906040528051906020012060001c9050919050565b6001604051806060016040528085815260200184815260200183815250908060018154018082558091505060019003906000526020600020906003020160009091909190915060008201518160000155602082015181600101908161022f919061086f565b506040820151816002015550507fe180e542e3c03d8159db9334c051118a554b98bc2380e84397bfe0d9c1b3031960016000548154811061027357610272610941565b5b90600052602060002090600302016000015460016000548154811061029b5761029a610941565b5b90600052602060002090600302016001016001600054815481106102c2576102c1610941565b5b9060005260206000209060030201600201546040516102e3939291906109f4565b60405180910390a16000808154809291906102fd90610a61565b9190505550505050565b6000604051905090565b600080fd5b600080fd5b6000819050919050565b61032e8161031b565b811461033957600080fd5b50565b60008135905061034b81610325565b92915050565b60006020828403121561036757610366610311565b5b60006103758482850161033c565b91505092915050565b6103878161031b565b82525050565b600081519050919050565b600082825260208201905092915050565b60005b838110156103c75780820151818401526020810190506103ac565b838111156103d6576000848401525b50505050565b6000601f19601f8301169050919050565b60006103f88261038d565b6104028185610398565b93506104128185602086016103a9565b61041b816103dc565b840191505092915050565b600060608201905061043b600083018661037e565b818103602083015261044d81856103ed565b905061045c604083018461037e565b949350505050565b6000602082019050610479600083018461037e565b92915050565b600080fd5b600080fd5b7f4e487b7100000000000000000000000000000000000000000000000000000000600052604160045260246000fd5b6104c1826103dc565b810181811067ffffffffffffffff821117156104e0576104df610489565b5b80604052505050565b60006104f3610307565b90506104ff82826104b8565b919050565b600067ffffffffffffffff82111561051f5761051e610489565b5b610528826103dc565b9050602081019050919050565b82818337600083830152505050565b600061055761055284610504565b6104e9565b90508281526020810184848401111561057357610572610484565b5b61057e848285610535565b509392505050565b600082601f83011261059b5761059a61047f565b5b81356105ab848260208601610544565b91505092915050565b600080604083850312156105cb576105ca610311565b5b600083013567ffffffffffffffff8111156105e9576105e8610316565b5b6105f585828601610586565b92505060206106068582860161033c565b9150509250929050565b7f4e487b7100000000000000000000000000000000000000000000000000000000600052602260045260246000fd5b6000600282049050600182168061065757607f821691505b60208210810361066a57610669610610565b5b50919050565b600081905092915050565b60006106868261038d565b6106908185610670565b93506106a08185602086016103a9565b80840191505092915050565b60006106b8828461067b565b915081905092915050565b60008190508160005260206000209050919050565b60006020601f8301049050919050565b600082821b905092915050565b6000600883026107257fffffffffffffffffffffffffffffffffffffffffffffffffffffffffffffffff826106e8565b61072f86836106e8565b95508019841693508086168417925050509392505050565b6000819050919050565b600061076c6107676107628461031b565b610747565b61031b565b9050919050565b6000819050919050565b61078683610751565b61079a61079282610773565b8484546106f5565b825550505050565b600090565b6107af6107a2565b6107ba81848461077d565b505050565b5b818110156107de576107d36000826107a7565b6001810190506107c0565b5050565b601f821115610823576107f4816106c3565b6107fd846106d8565b8101602085101561080c578190505b610820610818856106d8565b8301826107bf565b50505b505050565b600082821c905092915050565b600061084660001984600802610828565b1980831691505092915050565b600061085f8383610835565b9150826002028217905092915050565b6108788261038d565b67ffffffffffffffff81111561089157610890610489565b5b61089b825461063f565b6108a68282856107e2565b600060209050601f8311600181146108d957600084156108c7578287015190505b6108d18582610853565b865550610939565b601f1984166108e7866106c3565b60005b8281101561090f578489015182556001820191506020850194506020810190506108ea565b8683101561092c5784890151610928601f891682610835565b8355505b6001600288020188555050505b505050505050565b7f4e487b7100000000000000000000000000000000000000000000000000000000600052603260045260246000fd5b6000815461097d8161063f565b6109878186610398565b945060018216600081146109a257600181146109b8576109eb565b60ff1983168652811515602002860193506109eb565b6109c1856106c3565b60005b838110156109e3578154818901526001820191506020810190506109c4565b808801955050505b50505092915050565b6000606082019050610a09600083018661037e565b8181036020830152610a1b8185610970565b9050610a2a604083018461037e565b949350505050565b7f4e487b7100000000000000000000000000000000000000000000000000000000600052601160045260246000fd5b6000610a6c8261031b565b91507fffffffffffffffffffffffffffffffffffffffffffffffffffffffffffffffff8203610a9e57610a9d610a32565b5b60018201905091905056fea2646970667358221220991871e5992a07b9fdfe868d3688cf8c11ca90433a50dd8aae8a5514c27936a264736f6c634300080f0033","opcodes":"PUSH1 0x80 PUSH1 0x40 MSTORE PUSH1 0x0 DUP1 SSTORE CALLVALUE DUP1 ISZERO PUSH2 0x14 JUMPI PUSH1 0x0 DUP1 REVERT JUMPDEST POP PUSH2 0xADF DUP1 PUSH2 0x24 PUSH1 0x0 CODECOPY PUSH1 0x0 RETURN INVALID PUSH1 0x80 PUSH1 0x40 MSTORE CALLVALUE DUP1 ISZERO PUSH2 0x10 JUMPI PUSH1 0x0 DUP1 REVERT JUMPDEST POP PUSH1 0x4 CALLDATASIZE LT PUSH2 0x41 JUMPI PUSH1 0x0 CALLDATALOAD PUSH1 0xE0 SHR DUP1 PUSH4 0x133F7999 EQ PUSH2 0x46 JUMPI DUP1 PUSH4 0x87C02BB4 EQ PUSH2 0x78 JUMPI DUP1 PUSH4 0xA7B07C6A EQ PUSH2 0x96 JUMPI JUMPDEST PUSH1 0x0 DUP1 REVERT JUMPDEST PUSH2 0x60 PUSH1 0x4 DUP1 CALLDATASIZE SUB DUP2 ADD SWAP1 PUSH2 0x5B SWAP2 SWAP1 PUSH2 0x351 JUMP JUMPDEST PUSH2 0xB2 JUMP JUMPDEST PUSH1 0x40 MLOAD PUSH2 0x6F SWAP4 SWAP3 SWAP2 SWAP1 PUSH2 0x426 JUMP JUMPDEST PUSH1 0x40 MLOAD DUP1 SWAP2 SUB SWAP1 RETURN JUMPDEST PUSH2 0x80 PUSH2 0x174 JUMP JUMPDEST PUSH1 0x40 MLOAD PUSH2 0x8D SWAP2 SWAP1 PUSH2 0x464 JUMP JUMPDEST PUSH1 0x40 MLOAD DUP1 SWAP2 SUB SWAP1 RETURN JUMPDEST PUSH2 0xB0 PUSH1 0x4 DUP1 CALLDATASIZE SUB DUP2 ADD SWAP1 PUSH2 0xAB SWAP2 SWAP1 PUSH2 0x5B4 JUMP JUMPDEST PUSH2 0x17A JUMP JUMPDEST STOP JUMPDEST PUSH1 0x1 DUP2 DUP2 SLOAD DUP2 LT PUSH2 0xC2 JUMPI PUSH1 0x0 DUP1 REVERT JUMPDEST SWAP1 PUSH1 0x0 MSTORE PUSH1 0x20 PUSH1 0x0 KECCAK256 SWAP1 PUSH1 0x3 MUL ADD PUSH1 0x0 SWAP2 POP SWAP1 POP DUP1 PUSH1 0x0 ADD SLOAD SWAP1 DUP1 PUSH1 0x1 ADD DUP1 SLOAD PUSH2 0xEB SWAP1 PUSH2 0x63F JUMP JUMPDEST DUP1 PUSH1 0x1F ADD PUSH1 0x20 DUP1 SWAP2 DIV MUL PUSH1 0x20 ADD PUSH1 0x40 MLOAD SWAP1 DUP2 ADD PUSH1 0x40 MSTORE DUP1 SWAP3 SWAP2 SWAP1 DUP2 DUP2 MSTORE PUSH1 0x20 ADD DUP3 DUP1 SLOAD PUSH2 0x117 SWAP1 PUSH2 0x63F JUMP JUMPDEST DUP1 ISZERO PUSH2 0x164 JUMPI DUP1 PUSH1 0x1F LT PUSH2 0x139 JUMPI PUSH2 0x100 DUP1 DUP4 SLOAD DIV MUL DUP4 MSTORE SWAP2 PUSH1 0x20 ADD SWAP2 PUSH2 0x164 JUMP JUMPDEST DUP3 ADD SWAP2 SWAP1 PUSH1 0x0 MSTORE PUSH1 0x20 PUSH1 0x0 KECCAK256 SWAP1 JUMPDEST DUP2 SLOAD DUP2 MSTORE SWAP1 PUSH1 0x1 ADD SWAP1 PUSH1 0x20 ADD DUP1 DUP4 GT PUSH2 0x147 JUMPI DUP3 SWAP1 SUB PUSH1 0x1F AND DUP3 ADD SWAP2 JUMPDEST POP POP POP POP POP SWAP1 DUP1 PUSH1 0x2 ADD SLOAD SWAP1 POP DUP4 JUMP JUMPDEST PUSH1 0x0 SLOAD DUP2 JUMP JUMPDEST PUSH1 0x0 PUSH2 0x185 DUP4 PUSH2 0x197 JUMP JUMPDEST SWAP1 POP PUSH2 0x192 DUP2 DUP5 DUP5 PUSH2 0x1CA JUMP JUMPDEST POP POP POP JUMP JUMPDEST PUSH1 0x0 DUP2 PUSH1 0x40 MLOAD PUSH1 0x20 ADD PUSH2 0x1AA SWAP2 SWAP1 PUSH2 0x6AC JUMP JUMPDEST PUSH1 0x40 MLOAD PUSH1 0x20 DUP2 DUP4 SUB SUB DUP2 MSTORE SWAP1 PUSH1 0x40 MSTORE DUP1 MLOAD SWAP1 PUSH1 0x20 ADD KECCAK256 PUSH1 0x0 SHR SWAP1 POP SWAP2 SWAP1 POP JUMP JUMPDEST PUSH1 0x1 PUSH1 0x40 MLOAD DUP1 PUSH1 0x60 ADD PUSH1 0x40 MSTORE DUP1 DUP6 DUP2 MSTORE PUSH1 0x20 ADD DUP5 DUP2 MSTORE PUSH1 0x20 ADD DUP4 DUP2 MSTORE POP SWAP1 DUP1 PUSH1 0x1 DUP2 SLOAD ADD DUP1 DUP3 SSTORE DUP1 SWAP2 POP POP PUSH1 0x1 SWAP1 SUB SWAP1 PUSH1 0x0 MSTORE PUSH1 0x20 PUSH1 0x0 KECCAK256 SWAP1 PUSH1 0x3 MUL ADD PUSH1 0x0 SWAP1 SWAP2 SWAP1 SWAP2 SWAP1 SWAP2 POP PUSH1 0x0 DUP3 ADD MLOAD DUP2 PUSH1 0x0 ADD SSTORE PUSH1 0x20 DUP3 ADD MLOAD DUP2 PUSH1 0x1 ADD SWAP1 DUP2 PUSH2 0x22F SWAP2 SWAP1 PUSH2 0x86F JUMP JUMPDEST POP PUSH1 0x40 DUP3 ADD MLOAD DUP2 PUSH1 0x2 ADD SSTORE POP POP PUSH32 0xE180E542E3C03D8159DB9334C051118A554B98BC2380E84397BFE0D9C1B30319 PUSH1 0x1 PUSH1 0x0 SLOAD DUP2 SLOAD DUP2 LT PUSH2 0x273 JUMPI PUSH2 0x272 PUSH2 0x941 JUMP JUMPDEST JUMPDEST SWAP1 PUSH1 0x0 MSTORE PUSH1 0x20 PUSH1 0x0 KECCAK256 SWAP1 PUSH1 0x3 MUL ADD PUSH1 0x0 ADD SLOAD PUSH1 0x1 PUSH1 0x0 SLOAD DUP2 SLOAD DUP2 LT PUSH2 0x29B JUMPI PUSH2 0x29A PUSH2 0x941 JUMP JUMPDEST JUMPDEST SWAP1 PUSH1 0x0 MSTORE PUSH1 0x20 PUSH1 0x0 KECCAK256 SWAP1 PUSH1 0x3 MUL ADD PUSH1 0x1 ADD PUSH1 0x1 PUSH1 0x0 SLOAD DUP2 SLOAD DUP2 LT PUSH2 0x2C2 JUMPI PUSH2 0x2C1 PUSH2 0x941 JUMP JUMPDEST JUMPDEST SWAP1 PUSH1 0x0 MSTORE PUSH1 0x20 PUSH1 0x0 KECCAK256 SWAP1 PUSH1 0x3 MUL ADD PUSH1 0x2 ADD SLOAD PUSH1 0x40 MLOAD PUSH2 0x2E3 SWAP4 SWAP3 SWAP2 SWAP1 PUSH2 0x9F4 JUMP JUMPDEST PUSH1 0x40 MLOAD DUP1 SWAP2 SUB SWAP1 LOG1 PUSH1 0x0 DUP1 DUP2 SLOAD DUP1 SWAP3 SWAP2 SWAP1 PUSH2 0x2FD SWAP1 PUSH2 0xA61 JUMP JUMPDEST SWAP2 SWAP1 POP SSTORE POP POP POP POP JUMP JUMPDEST PUSH1 0x0 PUSH1 0x40 MLOAD SWAP1 POP SWAP1 JUMP JUMPDEST PUSH1 0x0 DUP1 REVERT JUMPDEST PUSH1 0x0 DUP1 REVERT JUMPDEST PUSH1 0x0 DUP2 SWAP1 POP SWAP2 SWAP1 POP JUMP JUMPDEST PUSH2 0x32E DUP2 PUSH2 0x31B JUMP JUMPDEST DUP2 EQ PUSH2 0x339 JUMPI PUSH1 0x0 DUP1 REVERT JUMPDEST POP JUMP JUMPDEST PUSH1 0x0 DUP2 CALLDATALOAD SWAP1 POP PUSH2 0x34B DUP2 PUSH2 0x325 JUMP JUMPDEST SWAP3 SWAP2 POP POP JUMP JUMPDEST PUSH1 0x0 PUSH1 0x20 DUP3 DUP5 SUB SLT ISZERO PUSH2 0x367 JUMPI PUSH2 0x366 PUSH2 0x311 JUMP JUMPDEST JUMPDEST PUSH1 0x0 PUSH2 0x375 DUP5 DUP3 DUP6 ADD PUSH2 0x33C JUMP JUMPDEST SWAP2 POP POP SWAP3 SWAP2 POP POP JUMP JUMPDEST PUSH2 0x387 DUP2 PUSH2 0x31B JUMP JUMPDEST DUP3 MSTORE POP POP JUMP JUMPDEST PUSH1 0x0 DUP2 MLOAD SWAP1 POP SWAP2 SWAP1 POP JUMP JUMPDEST PUSH1 0x0 DUP3 DUP3 MSTORE PUSH1 0x20 DUP3 ADD SWAP1 POP SWAP3 SWAP2 POP POP JUMP JUMPDEST PUSH1 0x0 JUMPDEST DUP4 DUP2 LT ISZERO PUSH2 0x3C7 JUMPI DUP1 DUP3 ADD MLOAD DUP2 DUP5 ADD MSTORE PUSH1 0x20 DUP2 ADD SWAP1 POP PUSH2 0x3AC JUMP JUMPDEST DUP4 DUP2 GT ISZERO PUSH2 0x3D6 JUMPI PUSH1 0x0 DUP5 DUP5 ADD MSTORE JUMPDEST POP POP POP POP JUMP JUMPDEST PUSH1 0x0 PUSH1 0x1F NOT PUSH1 0x1F DUP4 ADD AND SWAP1 POP SWAP2 SWAP1 POP JUMP JUMPDEST PUSH1 0x0 PUSH2 0x3F8 DUP3 PUSH2 0x38D JUMP JUMPDEST PUSH2 0x402 DUP2 DUP6 PUSH2 0x398 JUMP JUMPDEST SWAP4 POP PUSH2 0x412 DUP2 DUP6 PUSH1 0x20 DUP7 ADD PUSH2 0x3A9 JUMP JUMPDEST PUSH2 0x41B DUP2 PUSH2 0x3DC JUMP JUMPDEST DUP5 ADD SWAP2 POP POP SWAP3 SWAP2 POP POP JUMP JUMPDEST PUSH1 0x0 PUSH1 0x60 DUP3 ADD SWAP1 POP PUSH2 0x43B PUSH1 0x0 DUP4 ADD DUP7 PUSH2 0x37E JUMP JUMPDEST DUP2 DUP2 SUB PUSH1 0x20 DUP4 ADD MSTORE PUSH2 0x44D DUP2 DUP6 PUSH2 0x3ED JUMP JUMPDEST SWAP1 POP PUSH2 0x45C PUSH1 0x40 DUP4 ADD DUP5 PUSH2 0x37E JUMP JUMPDEST SWAP5 SWAP4 POP POP POP POP JUMP JUMPDEST PUSH1 0x0 PUSH1 0x20 DUP3 ADD SWAP1 POP PUSH2 0x479 PUSH1 0x0 DUP4 ADD DUP5 PUSH2 0x37E JUMP JUMPDEST SWAP3 SWAP2 POP POP JUMP JUMPDEST PUSH1 0x0 DUP1 REVERT JUMPDEST PUSH1 0x0 DUP1 REVERT JUMPDEST PUSH32 0x4E487B7100000000000000000000000000000000000000000000000000000000 PUSH1 0x0 MSTORE PUSH1 0x41 PUSH1 0x4 MSTORE PUSH1 0x24 PUSH1 0x0 REVERT JUMPDEST PUSH2 0x4C1 DUP3 PUSH2 0x3DC JUMP JUMPDEST DUP2 ADD DUP2 DUP2 LT PUSH8 0xFFFFFFFFFFFFFFFF DUP3 GT OR ISZERO PUSH2 0x4E0 JUMPI PUSH2 0x4DF PUSH2 0x489 JUMP JUMPDEST JUMPDEST DUP1 PUSH1 0x40 MSTORE POP POP POP JUMP JUMPDEST PUSH1 0x0 PUSH2 0x4F3 PUSH2 0x307 JUMP JUMPDEST SWAP1 POP PUSH2 0x4FF DUP3 DUP3 PUSH2 0x4B8 JUMP JUMPDEST SWAP2 SWAP1 POP JUMP JUMPDEST PUSH1 0x0 PUSH8 0xFFFFFFFFFFFFFFFF DUP3 GT ISZERO PUSH2 0x51F JUMPI PUSH2 0x51E PUSH2 0x489 JUMP JUMPDEST JUMPDEST PUSH2 0x528 DUP3 PUSH2 0x3DC JUMP JUMPDEST SWAP1 POP PUSH1 0x20 DUP2 ADD SWAP1 POP SWAP2 SWAP1 POP JUMP JUMPDEST DUP3 DUP2 DUP4 CALLDATACOPY PUSH1 0x0 DUP4 DUP4 ADD MSTORE POP POP POP JUMP JUMPDEST PUSH1 0x0 PUSH2 0x557 PUSH2 0x552 DUP5 PUSH2 0x504 JUMP JUMPDEST PUSH2 0x4E9 JUMP JUMPDEST SWAP1 POP DUP3 DUP2 MSTORE PUSH1 0x20 DUP2 ADD DUP5 DUP5 DUP5 ADD GT ISZERO PUSH2 0x573 JUMPI PUSH2 0x572 PUSH2 0x484 JUMP JUMPDEST JUMPDEST PUSH2 0x57E DUP5 DUP3 DUP6 PUSH2 0x535 JUMP JUMPDEST POP SWAP4 SWAP3 POP POP POP JUMP JUMPDEST PUSH1 0x0 DUP3 PUSH1 0x1F DUP4 ADD SLT PUSH2 0x59B JUMPI PUSH2 0x59A PUSH2 0x47F JUMP JUMPDEST JUMPDEST DUP2 CALLDATALOAD PUSH2 0x5AB DUP5 DUP3 PUSH1 0x20 DUP7 ADD PUSH2 0x544 JUMP JUMPDEST SWAP2 POP POP SWAP3 SWAP2 POP POP JUMP JUMPDEST PUSH1 0x0 DUP1 PUSH1 0x40 DUP4 DUP6 SUB SLT ISZERO PUSH2 0x5CB JUMPI PUSH2 0x5CA PUSH2 0x311 JUMP JUMPDEST JUMPDEST PUSH1 0x0 DUP4 ADD CALLDATALOAD PUSH8 0xFFFFFFFFFFFFFFFF DUP2 GT ISZERO PUSH2 0x5E9 JUMPI PUSH2 0x5E8 PUSH2 0x316 JUMP JUMPDEST JUMPDEST PUSH2 0x5F5 DUP6 DUP3 DUP7 ADD PUSH2 0x586 JUMP JUMPDEST SWAP3 POP POP PUSH1 0x20 PUSH2 0x606 DUP6 DUP3 DUP7 ADD PUSH2 0x33C JUMP JUMPDEST SWAP2 POP POP SWAP3 POP SWAP3 SWAP1 POP JUMP JUMPDEST PUSH32 0x4E487B7100000000000000000000000000000000000000000000000000000000 PUSH1 0x0 MSTORE PUSH1 0x22 PUSH1 0x4 MSTORE PUSH1 0x24 PUSH1 0x0 REVERT JUMPDEST PUSH1 0x0 PUSH1 0x2 DUP3 DIV SWAP1 POP PUSH1 0x1 DUP3 AND DUP1 PUSH2 0x657 JUMPI PUSH1 0x7F DUP3 AND SWAP2 POP JUMPDEST PUSH1 0x20 DUP3 LT DUP2 SUB PUSH2 0x66A JUMPI PUSH2 0x669 PUSH2 0x610 JUMP JUMPDEST JUMPDEST POP SWAP2 SWAP1 POP JUMP JUMPDEST PUSH1 0x0 DUP2 SWAP1 POP SWAP3 SWAP2 POP POP JUMP JUMPDEST PUSH1 0x0 PUSH2 0x686 DUP3 PUSH2 0x38D JUMP JUMPDEST PUSH2 0x690 DUP2 DUP6 PUSH2 0x670 JUMP JUMPDEST SWAP4 POP PUSH2 0x6A0 DUP2 DUP6 PUSH1 0x20 DUP7 ADD PUSH2 0x3A9 JUMP JUMPDEST DUP1 DUP5 ADD SWAP2 POP POP SWAP3 SWAP2 POP POP JUMP JUMPDEST PUSH1 0x0 PUSH2 0x6B8 DUP3 DUP5 PUSH2 0x67B JUMP JUMPDEST SWAP2 POP DUP2 SWAP1 POP SWAP3 SWAP2 POP POP JUMP JUMPDEST PUSH1 0x0 DUP2 SWAP1 POP DUP2 PUSH1 0x0 MSTORE PUSH1 0x20 PUSH1 0x0 KECCAK256 SWAP1 POP SWAP2 SWAP1 POP JUMP JUMPDEST PUSH1 0x0 PUSH1 0x20 PUSH1 0x1F DUP4 ADD DIV SWAP1 POP SWAP2 SWAP1 POP JUMP JUMPDEST PUSH1 0x0 DUP3 DUP3 SHL SWAP1 POP SWAP3 SWAP2 POP POP JUMP JUMPDEST PUSH1 0x0 PUSH1 0x8 DUP4 MUL PUSH2 0x725 PUSH32 0xFFFFFFFFFFFFFFFFFFFFFFFFFFFFFFFFFFFFFFFFFFFFFFFFFFFFFFFFFFFFFFFF DUP3 PUSH2 0x6E8 JUMP JUMPDEST PUSH2 0x72F DUP7 DUP4 PUSH2 0x6E8 JUMP JUMPDEST SWAP6 POP DUP1 NOT DUP5 AND SWAP4 POP DUP1 DUP7 AND DUP5 OR SWAP3 POP POP POP SWAP4 SWAP3 POP POP POP JUMP JUMPDEST PUSH1 0x0 DUP2 SWAP1 POP SWAP2 SWAP1 POP JUMP JUMPDEST PUSH1 0x0 PUSH2 0x76C PUSH2 0x767 PUSH2 0x762 DUP5 PUSH2 0x31B JUMP JUMPDEST PUSH2 0x747 JUMP JUMPDEST PUSH2 0x31B JUMP JUMPDEST SWAP1 POP SWAP2 SWAP1 POP JUMP JUMPDEST PUSH1 0x0 DUP2 SWAP1 POP SWAP2 SWAP1 POP JUMP JUMPDEST PUSH2 0x786 DUP4 PUSH2 0x751 JUMP JUMPDEST PUSH2 0x79A PUSH2 0x792 DUP3 PUSH2 0x773 JUMP JUMPDEST DUP5 DUP5 SLOAD PUSH2 0x6F5 JUMP JUMPDEST DUP3 SSTORE POP POP POP POP JUMP JUMPDEST PUSH1 0x0 SWAP1 JUMP JUMPDEST PUSH2 0x7AF PUSH2 0x7A2 JUMP JUMPDEST PUSH2 0x7BA DUP2 DUP5 DUP5 PUSH2 0x77D JUMP JUMPDEST POP POP POP JUMP JUMPDEST JUMPDEST DUP2 DUP2 LT ISZERO PUSH2 0x7DE JUMPI PUSH2 0x7D3 PUSH1 0x0 DUP3 PUSH2 0x7A7 JUMP JUMPDEST PUSH1 0x1 DUP2 ADD SWAP1 POP PUSH2 0x7C0 JUMP JUMPDEST POP POP JUMP JUMPDEST PUSH1 0x1F DUP3 GT ISZERO PUSH2 0x823 JUMPI PUSH2 0x7F4 DUP2 PUSH2 0x6C3 JUMP JUMPDEST PUSH2 0x7FD DUP5 PUSH2 0x6D8 JUMP JUMPDEST DUP2 ADD PUSH1 0x20 DUP6 LT ISZERO PUSH2 0x80C JUMPI DUP2 SWAP1 POP JUMPDEST PUSH2 0x820 PUSH2 0x818 DUP6 PUSH2 0x6D8 JUMP JUMPDEST DUP4 ADD DUP3 PUSH2 0x7BF JUMP JUMPDEST POP POP JUMPDEST POP POP POP JUMP JUMPDEST PUSH1 0x0 DUP3 DUP3 SHR SWAP1 POP SWAP3 SWAP2 POP POP JUMP JUMPDEST PUSH1 0x0 PUSH2 0x846 PUSH1 0x0 NOT DUP5 PUSH1 0x8 MUL PUSH2 0x828 JUMP JUMPDEST NOT DUP1 DUP4 AND SWAP2 POP POP SWAP3 SWAP2 POP POP JUMP JUMPDEST PUSH1 0x0 PUSH2 0x85F DUP4 DUP4 PUSH2 0x835 JUMP JUMPDEST SWAP2 POP DUP3 PUSH1 0x2 MUL DUP3 OR SWAP1 POP SWAP3 SWAP2 POP POP JUMP JUMPDEST PUSH2 0x878 DUP3 PUSH2 0x38D JUMP JUMPDEST PUSH8 0xFFFFFFFFFFFFFFFF DUP2 GT ISZERO PUSH2 0x891 JUMPI PUSH2 0x890 PUSH2 0x489 JUMP JUMPDEST JUMPDEST PUSH2 0x89B DUP3 SLOAD PUSH2 0x63F JUMP JUMPDEST PUSH2 0x8A6 DUP3 DUP3 DUP6 PUSH2 0x7E2 JUMP JUMPDEST PUSH1 0x0 PUSH1 0x20 SWAP1 POP PUSH1 0x1F DUP4 GT PUSH1 0x1 DUP2 EQ PUSH2 0x8D9 JUMPI PUSH1 0x0 DUP5 ISZERO PUSH2 0x8C7 JUMPI DUP3 DUP8 ADD MLOAD SWAP1 POP JUMPDEST PUSH2 0x8D1 DUP6 DUP3 PUSH2 0x853 JUMP JUMPDEST DUP7 SSTORE POP PUSH2 0x939 JUMP JUMPDEST PUSH1 0x1F NOT DUP5 AND PUSH2 0x8E7 DUP7 PUSH2 0x6C3 JUMP JUMPDEST PUSH1 0x0 JUMPDEST DUP3 DUP2 LT ISZERO PUSH2 0x90F JUMPI DUP5 DUP10 ADD MLOAD DUP3 SSTORE PUSH1 0x1 DUP3 ADD SWAP2 POP PUSH1 0x20 DUP6 ADD SWAP5 POP PUSH1 0x20 DUP2 ADD SWAP1 POP PUSH2 0x8EA JUMP JUMPDEST DUP7 DUP4 LT ISZERO PUSH2 0x92C JUMPI DUP5 DUP10 ADD MLOAD PUSH2 0x928 PUSH1 0x1F DUP10 AND DUP3 PUSH2 0x835 JUMP JUMPDEST DUP4 SSTORE POP JUMPDEST PUSH1 0x1 PUSH1 0x2 DUP9 MUL ADD DUP9 SSTORE POP POP POP JUMPDEST POP POP POP POP POP POP JUMP JUMPDEST PUSH32 0x4E487B7100000000000000000000000000000000000000000000000000000000 PUSH1 0x0 MSTORE PUSH1 0x32 PUSH1 0x4 MSTORE PUSH1 0x24 PUSH1 0x0 REVERT JUMPDEST PUSH1 0x0 DUP2 SLOAD PUSH2 0x97D DUP2 PUSH2 0x63F JUMP JUMPDEST PUSH2 0x987 DUP2 DUP7 PUSH2 0x398 JUMP JUMPDEST SWAP5 POP PUSH1 0x1 DUP3 AND PUSH1 0x0 DUP2 EQ PUSH2 0x9A2 JUMPI PUSH1 0x1 DUP2 EQ PUSH2 0x9B8 JUMPI PUSH2 0x9EB JUMP JUMPDEST PUSH1 0xFF NOT DUP4 AND DUP7 MSTORE DUP2 ISZERO ISZERO PUSH1 0x20 MUL DUP7 ADD SWAP4 POP PUSH2 0x9EB JUMP JUMPDEST PUSH2 0x9C1 DUP6 PUSH2 0x6C3 JUMP JUMPDEST PUSH1 0x0 JUMPDEST DUP4 DUP2 LT ISZERO PUSH2 0x9E3 JUMPI DUP2 SLOAD DUP2 DUP10 ADD MSTORE PUSH1 0x1 DUP3 ADD SWAP2 POP PUSH1 0x20 DUP2 ADD SWAP1 POP PUSH2 0x9C4 JUMP JUMPDEST DUP1 DUP9 ADD SWAP6 POP POP POP JUMPDEST POP POP POP SWAP3 SWAP2 POP POP JUMP JUMPDEST PUSH1 0x0 PUSH1 0x60 DUP3 ADD SWAP1 POP PUSH2 0xA09 PUSH1 0x0 DUP4 ADD DUP7 PUSH2 0x37E JUMP JUMPDEST DUP2 DUP2 SUB PUSH1 0x20 DUP4 ADD MSTORE PUSH2 0xA1B DUP2 DUP6 PUSH2 0x970 JUMP JUMPDEST SWAP1 POP PUSH2 0xA2A PUSH1 0x40 DUP4 ADD DUP5 PUSH2 0x37E JUMP JUMPDEST SWAP5 SWAP4 POP POP POP POP JUMP JUMPDEST PUSH32 0x4E487B7100000000000000000000000000000000000000000000000000000000 PUSH1 0x0 MSTORE PUSH1 0x11 PUSH1 0x4 MSTORE PUSH1 0x24 PUSH1 0x0 REVERT JUMPDEST PUSH1 0x0 PUSH2 0xA6C DUP3 PUSH2 0x31B JUMP JUMPDEST SWAP2 POP PUSH32 0xFFFFFFFFFFFFFFFFFFFFFFFFFFFFFFFFFFFFFFFFFFFFFFFFFFFFFFFFFFFFFFFF DUP3 SUB PUSH2 0xA9E JUMPI PUSH2 0xA9D PUSH2 0xA32 JUMP JUMPDEST JUMPDEST PUSH1 0x1 DUP3 ADD SWAP1 POP SWAP2 SWAP1 POP JUMP INVALID LOG2 PUSH5 0x6970667358 0x22 SLT KECCAK256 SWAP10 XOR PUSH18 0xE5992A07B9FDFE868D3688CF8C11CA90433A POP 0xDD DUP11 0xAE DUP11 SSTORE EQ 0xC2 PUSH26 0x36A264736F6C634300080F003300000000000000000000000000 "},"methodIdentifiers":{"createRealty(string,uint256)":"a7b07c6a","realtyCounter()":"87c02bb4","realtyInventory(uint256)":"133f7999"}}}}}